:020000040800F2
:1000000000000220A5150008351200083B12000868
:1000100041120008471200084D12000800000000BD
:100020000000000000000000000000005312000863
:1000300061120008000000006F1200087D12000825
:10004000F5150008F5150008F5150008F515000868
:10005000F5150008F5150008F5150008F515000858
:10006000F5150008F5150008F5150008F515000848
:10007000F5150008F5150008F5150008F515000838
:10008000F5150008F5150008F51500088912000897
:100090009D120008B1120008C5120008F5150008ED
:1000A000F5150008F5150008F5150008F515000808
:1000B000F5150008F5150008F5150008F5150008F8
:1000C000F5150008F5150008F5150008F5150008E8
:1000D000F5150008D9120008F5150008F5150008F7
:1000E000F5150008F5150008F5150008F5150008C8
:1000F000F5150008F5150008F5150008F5150008B8
:10010000F5150008F5150008F5150008F5150008A7
:10011000F5150008F5150008F5150008F515000897
:10012000F5150008F5150008F5150008F515000887
:10013000F5150008F5150008F5150008F515000877
:10014000F5150008F5150008F5150008ED12000872
:10015000F5150008F5150008F5150008F515000857
:10016000F5150008F5150008F5150008F515000847
:10017000F5150008F5150008F51500080000000049
:08018000F5150008F515000853
:1001900010B5054C237833B9044B13B10448AFF3C1
:1001A00000800123237010BDCC020020000000005D
:1001B0003CE7000808B5034B1BB103490348AFF304
:1001C000008008BD00000000D00200203CE70008CD
:1001D00010F8012B11F8013B012A28BF9A42F7D0F1
:1001E000D01A7047034613F8012B002AFBD1181AC6
:1001F000013870470000000000000000000000000F
:1002000001F0FF01102A2BDB10F0070F08D010F8C7
:10021000013B013A8B422DD010F0070F42B3F6D1CB
:10022000F0B441EA012141EA014122F007047FF0E4
:1002300000070023F0E80256083C85EA010586EA3B
:10024000010685FA47F5A3FA87F586FA47F6A5FA77
:1002500087F68EB9EED1F0BC01F0FF0102F0070283
:1002600032B110F8013B013A83EA010313B1F8D12E
:100270000020704701387047002D06BF354603380F
:10028000073815F0010F07D1013015F4807F02BF48
:10029000013015F4C03F0130F0BC0138704700BF99
:1002A00081F0004102E000BF83F0004330B54FEA27
:1002B00041044FEA430594EA050F08BF90EA020F94
:1002C0001FBF54EA000C55EA020C7FEA645C7FEA27
:1002D000655C00F0E2804FEA5454D4EB5555B8BF4A
:1002E0006D420CDD2C4480EA020281EA030382EABB
:1002F000000083EA010180EA020281EA0303362D4D
:1003000088BF30BD11F0004F4FEA01314FF4801C1F
:100310004CEA113102D0404261EB410113F0004F31
:100320004FEA03334CEA133302D0524263EB4303E8
:1003300094EA050F00F0A780A4F10104D5F1200E86
:100340000DDB02FA0EFC22FA05F2801841F10001E1
:1003500003FA0EF2801843FA05F359410EE0A5F1B5
:1003600020050EF1200E012A03FA0EFC28BF4CF0E6
:10037000020C43FA05F3C01851EBE37101F000459C
:1003800007D54FF0000EDCF1000C7EEB00006EEBA9
:100390000101B1F5801F1BD3B1F5001F0CD3490833
:1003A0005FEA30004FEA3C0C04F101044FEA44528A
:1003B00012F5800F80F09A80BCF1004F08BF5FEA11
:1003C000500C50F1000041EB045141EA050130BDF1
:1003D0005FEA4C0C404141EB0101013C28BFB1F503
:1003E000801FE9D291F0000F04BF01460020B1FA4E
:1003F00081F308BF2033A3F10B03B3F120020CDA21
:100400000C3208DD02F1140CC2F10C0201FA0CF0FE
:1004100021FA02F10CE002F11402D8BFC2F1200C63
:1004200001FA02F120FA0CFCDCBF41EA0C01904019
:10043000E41AA2BF01EB0451294330BD6FEA040462
:100440001F3C1CDA0C340EDC04F11404C4F120024D
:1004500020FA04F001FA02F340EA030021FA04F35F
:1004600045EA030130BDC4F10C04C4F1200220FAB6
:1004700002F001FA04F340EA0300294630BD21FAF4
:1004800004F0294630BD94F0000F83F4801306BFBA
:1004900081F480110134013D4EE77FEA645C18BFAE
:1004A0007FEA655C29D094EA050F08BF90EA020F45
:1004B00005D054EA000C04BF1946104630BD91EA3D
:1004C000030F1EBF0021002030BD5FEA545C05D140
:1004D0004000494128BF41F0004130BD14F580047F
:1004E0003CBF01F5801130BD01F0004545F0FE41F3
:1004F00041F470014FF0000030BD7FEA645C1ABF28
:10050000194610467FEA655C1CBF0B46024650EA5E
:10051000013406BF52EA033591EA030F41F400218A
:1005200030BD00BF90F0000F04BF0021704730B510
:100530004FF4806404F132044FF000054FF00001E5
:1005400050E700BF90F0000F04BF0021704730B5A6
:100550004FF4806404F1320410F0004548BF40427B
:100560004FF000013EE700BF42004FEAE2014FEAD0
:1005700031014FEA02701FBF12F07F4393F07F4FAB
:1005800081F06051704732F07F4208BF704793F0AE
:100590007F4F04BF41F40021704730B54FF46074C1
:1005A00001F0004521F000411CE700BF50EA0102C4
:1005B00008BF704730B54FF000050AE050EA01026D
:1005C00008BF704730B511F0004502D5404261EBDD
:1005D00041014FF4806404F132045FEA915C3FF41E
:1005E000D8AE4FF003025FEADC0C18BF03325FEABB
:1005F000DC0C18BF033202EBDC02C2F1200300FA6C
:1006000003FC20FA02F001FA03FE40EA0E0021FA90
:1006100002F11444BDE600BF70B54FF0FF0C4CF47E
:10062000E06C1CEA11541DBF1CEA135594EA0C0F30
:1006300095EA0C0F00F0DEF82C4481EA030621EA6B
:100640004C5123EA4C5350EA013518BF52EA0335A6
:1006500041F4801143F4801338D0A0FB02CE4FF058
:100660000005E1FB02E506F00042E0FB03E54FF088
:100670000006E1FB03569CF0000F18BF4EF0010E80
:10068000A4F1FF04B6F5007F64F5407404D25FEA7C
:100690004E0E6D4146EB060642EAC62141EA55512F
:1006A0004FEAC52040EA5E504FEACE2EB4F1FD0C71
:1006B00088BFBCF5E06F1ED8BEF1004F08BF5FEAEF
:1006C000500E50F1000041EB045170BD06F00046A1
:1006D00046EA010140EA020081EA0301B4EB5C044E
:1006E000C2BFD4EB0C0541EA045170BD41F4801146
:1006F0004FF0000E013C00F3AB8014F1360FDEBF6B
:10070000002001F0004170BDC4F10004203C35DA46
:100710000C341BDC04F11404C4F1200500FA05F3C9
:1007200020FA04F001FA05F240EA020001F000426A
:1007300021F0004110EBD37021FA04F642EB0601E0
:100740005EEA430E08BF20EAD37070BDC4F10C040A
:10075000C4F1200500FA04F320FA05F001FA04F2CE
:1007600040EA020001F0004110EBD37041F10001BA
:100770005EEA430E08BF20EAD37070BDC4F12005C5
:1007800000FA05F24EEA020E20FA04F301FA05F22D
:1007900043EA020321FA04F001F0004121FA04F2D5
:1007A00020EA020000EBD3705EEA430E08BF20EAA5
:1007B000D37070BD94F0000F0FD101F000464000DF
:1007C00041EB010111F4801F08BF013CF7D041EA61
:1007D000060195F0000F18BF704703F00046520065
:1007E00043EB030313F4801F08BF013DF7D043EA36
:1007F0000603704794EA0C0F0CEA135518BF95EAEC
:100800000C0F0CD050EA410618BF52EA4306D1D172
:1008100081EA030101F000414FF0000070BD50EA91
:10082000410606BF1046194652EA430619D094EA1B
:100830000C0F02D150EA013613D195EA0C0F05D105
:1008400052EA03361CBF104619460AD181EA030159
:1008500001F0004141F0FE4141F470014FF0000011
:1008600070BD41F0FE4141F4780170BD70B54FF0AC
:10087000FF0C4CF4E06C1CEA11541DBF1CEA13552C
:1008800094EA0C0F95EA0C0F00F0A7F8A4EB05040E
:1008900081EA030E52EA03354FEA013100F0888005
:1008A0004FEA03334FF0805545EA131343EA1263CE
:1008B0004FEA022245EA111545EA10654FEA002683
:1008C0000EF000419D4208BF964244F1FD0404F53C
:1008D000407402D25B084FEA3202B61A65EB030598
:1008E0005B084FEA32024FF480104FF4002CB6EB55
:1008F000020E75EB030E22BFB61A754640EA0C00D5
:100900005B084FEA3202B6EB020E75EB030E22BF14
:10091000B61A754640EA5C005B084FEA3202B6EB55
:10092000020E75EB030E22BFB61A754640EA9C0014
:100930005B084FEA3202B6EB020E75EB030E22BFE4
:10094000B61A754640EADC0055EA060E18D04FEAA2
:10095000051545EA16754FEA06164FEAC30343EA42
:1009600052734FEAC2025FEA1C1CC0D111F4801F0F
:100970000BD141EA00014FF000004FF0004CB6E708
:1009800011F4801F04BF01430020B4F1FD0C88BFA7
:10099000BCF5E06F3FF6AFAEB5EB030C04BFB6EBB2
:1009A000020C5FEA500C50F1000041EB045170BDA5
:1009B0000EF0004E4EEA113114EB5C04C2BFD4EBD2
:1009C0000C0541EA045170BD41F480114FF0000E56
:1009D000013C90E645EA060E8DE60CEA135594EAD2
:1009E0000C0F08BF95EA0C0F3FF43BAF94EA0C0FD5
:1009F0000AD150EA01347FF434AF95EA0C0F7FF44A
:100A000025AF104619462CE795EA0C0F06D152EA9D
:100A100003353FF4FDAE1046194622E750EA410681
:100A200018BF52EA43067FF4C5AE50EA41047FF492
:100A30000DAF52EA43057FF4EBAE12E74FF0FF3CF7
:100A400006E000BF4FF0010C02E000BF4FF0010CC8
:100A50004DF804CD4FEA410C7FEA6C5C4FEA430C41
:100A600018BF7FEA6C5C1BD001B050EA410C0CBF90
:100A700052EA430C91EA030F02BF90EA020F0020F2
:100A8000704710F1000F91EA030F58BF994208BF59
:100A900090422CBFD8176FEAE37040F00100704716
:100AA0004FEA410C7FEA6C5C02D150EA013C07D16D
:100AB0004FEA430C7FEA6C5CD6D152EA033CD3D0B8
:100AC0005DF8040B704700BF8446104662468C46B2
:100AD0001946634600E000BF01B5FFF7B7FF0028E5
:100AE00048BF10F1000F01BD4DF808EDFFF7F4FF0E
:100AF0000CBF012000205DF808FB00BF4DF808ED99
:100B0000FFF7EAFF34BF012000205DF808FB00BFBB
:100B10004DF808EDFFF7E0FF94BF012000205DF8DD
:100B200008FB00BF4DF808EDFFF7CEFF94BF012092
:100B300000205DF808FB00BF4DF808EDFFF7C4FF8B
:100B400034BF012000205DF808FB00BF4FEA410CD4
:100B50007FEA6C5C02D150EA013C0AD14FEA430CB7
:100B60007FEA6C5C02D152EA033C02D14FF00000F4
:100B700070474FF0010070474FEA410212F5001232
:100B800015D211D56FF47873B3EB625212D94FEAD4
:100B9000C12343F0004343EA505311F0004F23FABE
:100BA00002F018BF404270474FF00000704750EA13
:100BB000013005D111F0004008BF6FF000407047D0
:100BC0004FF00000704700BF53B94AB9002908BF71
:100BD00000281CBF4FF0FF314FF0FF3000F074B918
:100BE000ADF1080C6DE904CE00F006F8DDF804E084
:100BF000DDE9022304B070472DE9F047089D044663
:100C00008E46002B4DD18A42944669D9B2FA82F2BF
:100C100052B101FA02F3C2F1200120FA01F10CFAFB
:100C200002FC41EA030E94404FEA1C48210CBEFB33
:100C3000F8F61FFA8CF708FB16E341EA034306FBBC
:100C400007F199420AD91CEB030306F1FF3080F04B
:100C50001F81994240F21C81023E63445B1AA4B298
:100C6000B3FBF8F008FB103344EA034400FB07F73A
:100C7000A7420AD91CEB040400F1FF3380F00A817B
:100C8000A74240F207816444023840EA0640E41B70
:100C900000261DB1D4400023C5E900433146BDE81C
:100CA000F0878B4209D9002D00F0EF800026C5E9BE
:100CB000000130463146BDE8F087B3FA83F6002ED6
:100CC0004AD18B4202D3824200F2F980841A61EB4E
:100CD000030301209E46002DE0D0C5E9004EDDE76C
:100CE00002B9FFDEB2FA82F2002A40F09280A1EB54
:100CF0000C014FEA1C471FFA8CFE0126200CB1FBA9
:100D0000F7F307FB131140EA01410EFB03F08842A1
:100D100008D91CEB010103F1FF3802D2884200F22E
:100D2000CB804346091AA4B2B1FBF7F007FB1011C0
:100D300044EA01440EFB00FEA64508D91CEB04045E
:100D400000F1FF3102D2A64500F2BB800846A4EBB9
:100D50000E0440EA03409CE7C6F12007B34022FAA4
:100D600007FC4CEA030C20FA07F401FA06F31C43D3
:100D7000F9404FEA1C4900FA06F3B1FBF9F8200CE0
:100D80001FFA8CFE09FB181140EA014108FB0EF026
:100D9000884202FA06F20BD91CEB010108F1FF3A76
:100DA00080F08880884240F28580A8F10208614482
:100DB000091AA4B2B1FBF9F009FB101144EA014190
:100DC00000FB0EFE8E4508D91CEB010100F1FF343B
:100DD0006CD28E456AD90238614440EA0840A0FBD3
:100DE0000294A1EB0E01A142C846A64656D353D0A9
:100DF0005DB1B3EB080261EB0E0101FA07F722FACD
:100E000006F3F1401F43C5E9007100263146BDE8F5
:100E1000F087C2F12003D8400CFA02FC21FA03F358
:100E2000914001434FEA1C471FFA8CFEB3FBF7F0D9
:100E300007FB10360B0C43EA064300FB0EF69E42FE
:100E400004FA02F408D91CEB030300F1FF382FD297
:100E50009E422DD9023863449B1B89B2B3FBF7F63F
:100E600007FB163341EA034106FB0EF38B4208D918
:100E70001CEB010106F1FF3816D28B4214D9023E59
:100E80006144C91A46EA004638E72E46284605E777
:100E90000646E3E61846F8E64B45A9D2B9EB020848
:100EA00064EB0C0E0138A3E74646EAE7204694E7D8
:100EB0004046D1E7D0467BE7023B614432E730460B
:100EC00009E76444023842E7704700BF80B500AFCD
:100ED000174B184A1A60164B02225A60144B002214
:100EE0009A60134B0022DA60114B4FF440221A61D2
:100EF0000F4B4FF480125A610D4B00221A760C4BA7
:100F000001225A760A4B00229A76094B0022DA76A1
:100F1000074B01221A77064B01225A77044800F04A
:100F200001FC0346002B01D000F056F900BF80BD44
:100F3000E80200200064004080B58AB000AF78600D
:100F400007F1140300221A605A609A60DA601A618D
:100F50007B681B68294A93424CD100233B61284B94
:100F60001B6C274A43F000731364254B1B6C03F082
:100F700000733B613B690023FB60214B1B6B204AE4
:100F800043F0020313631E4B1B6B03F00203FB6071
:100F9000FB684FF440737B610223BB610123FB615B
:100FA00003233B6209237B6207F1140319461548AA
:100FB00001F008FC00220021132001F03AFB13206D
:100FC00001F053FB00220021142001F032FB142019
:100FD00001F04BFB00220021152001F02AFB152017
:100FE00001F043FB00220021162001F022FB162015
:100FF00001F03BFB00BF2837BD4680BD00640040C8
:10100000003802400004024080B58AB000AF07F10A
:10101000140300221A605A609A60DA601A61002391
:101020003B61274B1B6B264A43F004031363244B9D
:101030001B6B03F004033B613B690023FB60204B07
:101040001B6B1F4A43F0800313631D4B1B6B03F0A4
:101050008003FB60FB680023BB60194B1B6B184AC5
:1010600043F001031363164B1B6B03F00103BB60DA
:10107000BB6800237B60124B1B6B114A43F00203D9
:1010800013630F4B1B6B03F002037B607B68002232
:101090004FF4C0410B4801F031FD4FF4C0437B6178
:1010A0000123BB610023FB6100233B6207F11403B2
:1010B0001946044801F086FB00BF2837BD4680BDB5
:1010C000003802400008024080B500AF00F094FAFA
:1010D00000F00EF8FFF798FFFFF7F8FE09F0FAFDB1
:1010E00000F0E6F907F092FF07F0A0FFFCE7000030
:1010F00080B594B000AF07F12003302200211846DC
:101100000AF08EFB07F10C0300221A605A609A6005
:10111000DA601A610023BB602D4B1B6C2C4A43F034
:10112000805313642A4B1B6C03F08053BB60BB6875
:1011300000237B60274B1B68264A43F480431360DF
:10114000244B1B6803F480437B607B6801233B6274
:101150004FF480337B620223BB634FF48003FB6355
:1011600004233B64C0237B640623BB640823FB6425
:1011700007F12003184602F071FF0346002B14BF4D
:1011800001230023DBB2002B01D000F025F80F2350
:10119000FB6002233B6100237B614FF48053BB6102
:1011A0004FF48053FB6107F10C030221184603F052
:1011B000CDF90346002B14BF01230023DBB2002B23
:1011C00001D000F009F800BF5037BD4680BD00BF18
:1011D000003802400070004080B400AF72B600BF1B
:1011E000FEE7000080B483B000AF00237B60104BAB
:1011F0005B6C0F4A43F4804353640D4B5B6C03F408
:1012000080437B607B6800233B60094B1B6C084A72
:1012100043F080531364064B1B6C03F080533B6018
:101220003B6800BF0C37BD465DF8047B704700BFCC
:101230000038024080B400AFFEE780B400AFFEE7A4
:1012400080B400AFFEE780B400AFFEE780B400AF2B
:10125000FEE780B400AF00BFBD465DF8047B704779
:1012600080B400AF00BFBD465DF8047B704780B41A
:1012700000AF00BFBD465DF8047B704780B500AF8E
:1012800000F00CFA00BF80BD80B500AF024800F04E
:10129000C5FE00BF80BD00BFE802002080B500AFE2
:1012A000024800F0BBFE00BF80BD00BFE802002086
:1012B00080B500AF024800F0B1FE00BF80BD00BFA6
:1012C000E802002080B500AF024800F0A7FE00BF92
:1012D00080BD00BFE802002080B500AF024803F0E7
:1012E000A3FB00BF80BD00BF1403002080B500AF8A
:1012F000024801F086FD00BF80BD00BF40180020FD
:1013000080B400AF01231846BD465DF8047B7047EA
:1013100080B582B000AF786039600AF039FA0346D0
:1013200016221A604FF0FF3318460837BD4680BDBD
:1013300080B582B000AF78604FF0FF317868FFF77A
:10134000E7FFFEE780B586B000AFF860B9607A606D
:1013500000237B610AE0AFF300800146BB685A1CA2
:10136000BA60CAB21A707B6901337B617A697B68A3
:101370009A42F0DB7B6818461837BD4680BD80B5C1
:1013800086B000AFF860B9607A6000237B6109E045
:10139000BB685A1CBA601B781846AFF300807B69A3
:1013A00001337B617A697B689A42F1DB7B6818467E
:1013B0001837BD4680BD80B483B000AF78604FF071
:1013C000FF3318460C37BD465DF8047B704780B488
:1013D00083B000AF786039603B684FF400525A60C8
:1013E000002318460C37BD465DF8047B704780B477
:1013F00083B000AF7860012318460C37BD465DF816
:10140000047B704780B485B000AFF860B9607A6043
:10141000002318461437BD465DF8047B7047000072
:1014200080B586B000AF7860144A154BD31A7B6143
:101430007B693B61134B1B68002B02D1114B124A95
:101440001A60104B1A687B6813443A699A4207D2B3
:101450000AF09EF903460C221A604FF0FF3309E0B0
:10146000084B1B68FB60074B1A687B681344054AEE
:101470001360FB6818461837BD4680BD0000022087
:101480000004000010030020801F002080B400AF83
:10149000064BD3F88830054A43F47003C2F888300D
:1014A00000BFBD465DF8047B704700BF00ED00E063
:1014B00080B500AF114B124A1A60104B4FF4E13265
:1014C0005A600E4B00229A600C4B0022DA600B4BE4
:1014D00000221A61094B0C225A61084B00229A61C2
:1014E000064B0022DA61054803F050FA0346002B50
:1014F00001D0FFF771FE00BF80BD00BF14030020C4
:101500000010014080B58AB000AF786007F1140385
:1015100000221A605A609A60DA601A617B681B6860
:101520001D4A934234D100233B611C4B5B6C1B4A28
:1015300043F010035364194B5B6C03F010033B61E1
:101540003B690023FB60154B1B6B144A43F00103FE
:101550001363124B1B6B03F00103FB60FB684FF43A
:10156000C0637B610223BB610023FB6103233B62F9
:1015700007237B6207F114031946094801F022F999
:1015800000220021252001F054F8252001F06DF8FB
:1015900000BF2837BD4680BD001001400038024022
:1015A00000000240DFF834D00D480E490E4A0023F7
:1015B00002E0D458C4500433C4188C42F9D30B4A07
:1015C0000B4C002301E013600432A242FBD3FFF76F
:1015D0005DFF0AF0E3F8FFF777FD70470000022097
:1015E00000000020CC02002014EC0008CC020020F7
:1015F000801F0020FEE7000080B500AF0E4B1B6887
:101600000D4A43F4007313600B4B1B680A4A43F402
:1016100080631360084B1B68074A43F480731360B0
:10162000032000F0FBFF0F2000F008F8FFF7DAFDC1
:101630000023184680BD00BF003C024080B582B048
:1016400000AF7860124B1A68124B1B7819464FF4A2
:101650007A73B3FBF1F3B2FBF3F3184601F013F81E
:101660000346002B01D001230EE07B680F2B0AD824
:10167000002279684FF0FF3000F0DBFF064A7B68FC
:101680001360002300E0012318460837BD4680BDE3
:1016900000000020080000200400002080B400AFFB
:1016A000064B1B781A46064B1B681344044A13600A
:1016B00000BFBD465DF8047B704700BF08000020F6
:1016C0005803002080B400AF034B1B681846BD468A
:1016D0005DF8047B704700BF5803002080B584B0DC
:1016E00000AF7860FFF7EEFFB8607B68FB60FB68D7
:1016F000B3F1FF3F05D00A4B1B781A46FB68134431
:10170000FB6000BFFFF7DEFF0246BB68D31AFA6832
:101710009A42F7D800BF00BF1037BD4680BD00BF5A
:101720000800002080B584B000AF78607B68002B93
:1017300001D10123EDE07B6893F82030DBB2002B70
:1017400002D17868FFF7F8FB7B681B681A687B6832
:101750001B6842F001021A60FFF7B4FFF86012E064
:10176000FFF7B0FF0246FB68D31A0A2B0BD97B6840
:101770005B6A43F400327B685A627B68052283F817
:1017800020200123C5E07B681B685B6803F0010330
:10179000002BE5D07B681B681A687B681B6822F009
:1017A00002021A60FFF78EFFF86012E0FFF78AFF6F
:1017B0000246FB68D31A0A2B0BD97B685B6A43F499
:1017C00000327B685A627B68052283F8202001235F
:1017D0009FE07B681B685B6803F00203002BE5D188
:1017E0007B681B7E012B08D17B681B681A687B68AD
:1017F0001B6842F080021A6007E07B681B681A6869
:101800007B681B6822F080021A607B685B7E012B7C
:1018100008D17B681B681A687B681B6842F040022D
:101820001A6007E07B681B681A687B681B6822F0F7
:1018300040021A607B689B7E012B08D17B681B6885
:101840001A687B681B6842F020021A6007E07B6818
:101850001B681A687B681B6822F020021A607B688C
:10186000DB7E012B08D17B681B681A687B681B68CC
:1018700022F010021A6007E07B681B681A687B6818
:101880001B6842F010021A607B681B7F012B08D195
:101890007B681B681A687B681B6842F008021A6044
:1018A00007E07B681B681A687B681B6822F00802E7
:1018B0001A607B685B7F012B08D17B681B681A6804
:1018C0007B681B6842F004021A6007E07B681B68B3
:1018D0001A687B681B6822F004021A607B689A68A9
:1018E0007B68DB681A437B681B691A437B685B690A
:1018F00042EA03017B685B685A1E7B681B680A43E7
:10190000DA617B6800225A627B68012283F820201A
:10191000002318461037BD4680BD000080B487B054
:1019200000AF786039607B681B687B617B6893F8E7
:101930002030FB74FB7C012B03D0FB7C022B40F09E
:10194000BE80654B7B617B69D3F8003243F00102B6
:101950007B69C3F800227B69D3F8003223F47C5200
:101960007B69C3F800227B69D3F800223B685B6A7D
:101970001B021A437B69C3F800223B685B6903F0D2
:101980001F03012202FA03F3FB607B69D3F81C22D8
:10199000FB68DB431A407B69C3F81C223B68DB69A8
:1019A000002B23D17B69D3F80C22FB68DB431A4060
:1019B0007B69C3F80C223B68DB6819043B685B68F1
:1019C0009BB23A68526919437B69483243F8321036
:1019D0003B689B6819043B681B689AB23B685B696B
:1019E0000A4379694833DB000B445A603B68DB6982
:1019F000012B22D17B69D3F80C22FB681A437B6947
:101A0000C3F80C223B681B6819043B685B689BB2F7
:101A10003A68526919437B69483243F832103B688F
:101A20009B6819043B68DB689AB23B685B690A43B0
:101A300079694833DB000B445A603B689B69002B93
:101A400009D17B69D3F80422FB68DB431A407B6928
:101A5000C3F8042207E07B69D3F80422FB681A4329
:101A60007B69C3F804223B681B69002B09D17B69A1
:101A7000D3F81422FB68DB431A407B69C3F81422B5
:101A800007E07B69D3F81422FB681A437B69C3F82B
:101A900014223B681B6A012B07D17B69D3F81C22F7
:101AA000FB681A437B69C3F81C227B69D3F80032B8
:101AB00023F001027B69C3F80022002306E07B6863
:101AC0005B6A43F480227B685A62012318461C3704
:101AD000BD465DF8047B70470064004080B584B06B
:101AE00000AF78607B6893F82030DBB2012B2ED1F9
:101AF0007B68022283F820207B681B681A687B6859
:101B00001B6822F001021A60FFF7DCFDF86012E0AA
:101B1000FFF7D8FD0246FB68D31A0A2B0BD97B6866
:101B20005B6A43F400327B685A627B68052283F863
:101B30002020012312E07B681B685B6803F001032F
:101B4000002BE5D17B6800225A62002306E07B6807
:101B50005B6A43F400227B685A62012318461037FF
:101B6000BD4680BD80B584B000AF78607B6893F8D7
:101B70002030DBB2022B33D17B681B681A687B688C
:101B80001B6842F001021A60FFF79CFDF86012E04A
:101B9000FFF798FD0246FB68D31A0A2B0BD97B6826
:101BA0005B6A43F400327B685A627B68052283F8E3
:101BB000202001231BE07B681B685B6803F00103A6
:101BC000002BE5D07B681B681A687B681B6822F0D5
:101BD00002021A607B68012283F82020002306E0BD
:101BE0007B685B6A43F480127B685A620123184663
:101BF0001037BD4680BD80B489B000AFF860B960D1
:101C00007A603B60FB6893F82030FB77FB681B68C9
:101C10009B68BB61FB7F012B03D0FB7F022B40F055
:101C2000B880BB6903F08063002B0AD1BB6903F065
:101C30000063002B05D1BB6903F08053002B00F03B
:101C4000A080BB691B0E03F003037B617B69022B41
:101C500007D9FB685B6A43F40002FB685A62012300
:101C60009EE001227B699A403B681A60BB689B68D2
:101C7000002B0DD1BB681B685A05BB68DB68F9688F
:101C800009681A437B6918331B010B441A600FE083
:101C9000BB685B68DA00BB689B681A43BB68DB689B
:101CA000F96809681A437B6918331B010B441A60F1
:101CB000FB681968BB681A697B6918331B010B4400
:101CC00004331A60BB681B7D012B11D1FB681A68B5
:101CD0007B6918331B01134404331B68FA681168CD
:101CE00043F480727B6918331B010B4404331A6080
:101CF0007B6807331B781A067B6806331B781B0446
:101D00001A437B6805331B781B0213437A6804323D
:101D100012781046FA68116843EA00027B691B01D9
:101D20000B4403F5C6731A607B6803331B781A06ED
:101D30007B6802331B781B041A437B6801331B78D2
:101D40001B0213437A6812781046FA68116843EA56
:101D500000027B691B010B4403F5C4731A60FB6826
:101D60001A687B6918331B0113441B68FA681168F1
:101D700043F001027B6918331B010B441A600023F6
:101D80000EE0FB685B6A43F40012FB685A620123B1
:101D900006E0FB685B6A43F48022FB685A62012319
:101DA00018462437BD465DF8047B704780B487B081
:101DB00000AFF860B9607A603B60FB6893F8203050
:101DC000FB75FB7D012B03D0FB7D022B40F0F380E4
:101DD000BB68002B0ED1FB681B68DB6803F00303B4
:101DE000002B16D1FB685B6A43F40012FB685A6251
:101DF0000123E7E0FB681B681B6903F00303002B6A
:101E000007D1FB685B6A43F40012FB685A62012346
:101E1000D8E0FB681A68BB681B331B0113441B68BE
:101E200003F004027B689A607B689B68002B0CD1EE
:101E3000FB681A68BB681B331B0113441B685B0DEE
:101E4000C3F30A027B681A600BE0FB681A68BB6880
:101E50001B331B0113441B68DB0823F060427B68C3
:101E60005A60FB681A68BB681B331B0113441B686C
:101E700003F002027B68DA60FB681A68BB681B33F8
:101E80001B01134404331B6803F00F027B681A61C3
:101E9000FB681A68BB681B331B01134404331B68BF
:101EA0001B0ADAB27B689A61FB681A68BB681B334D
:101EB0001B01134404331B681B0C9AB27B685A61E4
:101EC000FB681A68BB681B01134403F5DC731B68CD
:101ED000DAB23B681A70FB681A68BB681B011344CE
:101EE00003F5DC731B681A0A3B680133D2B21A701F
:101EF000FB681A68BB681B01134403F5DC731B689D
:101F00001A0C3B680233D2B21A70FB681A68BB68BD
:101F10001B01134403F5DC731B681A0E3B68033383
:101F2000D2B21A70FB681A68BB681B01134403F530
:101F3000DE731A683B680433D2B21A70FB681A6801
:101F4000BB681B01134403F5DE731B681A0A3B6868
:101F50000533D2B21A70FB681A68BB681B011344C0
:101F600003F5DE731B681A0C3B680633D2B21A7095
:101F7000FB681A68BB681B01134403F5DE731B681A
:101F80001A0E3B680733D2B21A70BB68002B08D117
:101F9000FB681B68DA68FB681B6842F02002DA60A5
:101FA00007E0FB681B681A69FB681B6842F02002A7
:101FB0001A61002306E0FB685B6A43F48022FB6839
:101FC0005A62012318461C37BD465DF8047B7047F2
:101FD00080B485B000AF786039607B6893F82030BA
:101FE000FB73FB7B012B02D0FB7B022B09D17B68AF
:101FF0001B6859697B681B683A680A435A61002369
:1020000006E07B685B6A43F480227B685A620123A6
:1020100018461437BD465DF8047B704780B58AB01A
:1020200000AF786000237B627B681B685B693B6262
:102030007B681B685B68FB617B681B689B68BB6196
:102040007B681B68DB687B617B681B681B693B6185
:102050007B681B689B69FB603B6A03F00103002BF4
:102060007CD0BB6903F00103002B23D07B681B6885
:1020700001229A60BB6903F00203002B03D0786849
:1020800000F083F916E0BB6903F00403002B04D0D1
:102090007B6A43F400637B620CE0BB6903F00803D6
:1020A000002B04D07B6A43F480537B6202E07868A3
:1020B00000F089F9BB6903F48073002B24D07B689E
:1020C0001B684FF480729A60BB6903F40073002BA5
:1020D00003D0786800F063F916E0BB6903F480630D
:1020E000002B04D07B6A43F400537B620CE0BB6995
:1020F00003F40063002B04D07B6A43F480437B62CB
:1021000002E0786800F069F9BB6903F48033002BC2
:1021100024D07B681B684FF480329A60BB6903F45B
:102120000033002B03D0786800F043F916E0BB6958
:1021300003F48023002B04D07B6A43F400437B62CA
:102140000CE0BB6903F40023002B04D07B6A43F44A
:1021500080337B6202E0786800F049F93B6A03F063
:102160000803002B0CD07B6903F01003002B07D071
:102170007B6A43F400737B627B681B681022DA6021
:102180003B6A03F00403002B0BD07B6903F00803C8
:10219000002B06D07B681B680822DA60786800F0A4
:1021A00030F93B6A03F00203002B09D07B681B68FF
:1021B000DB6803F00303002B02D0786807F004FD0E
:1021C0003B6A03F04003002B0CD03B6903F0100383
:1021D000002B07D07B6A43F480637B627B681B68BB
:1021E00010221A613B6A03F02003002B0BD03B69DD
:1021F00003F00803002B06D07B681B6808221A61D5
:10220000786800F012F93B6A03F01003002B09D044
:102210007B681B681B6903F00303002B02D07868FE
:1022200000F0F9F83B6A03F40033002B0BD0FB6994
:1022300003F01003002B06D07B681B6810225A6045
:10224000786800F0FCF83B6A03F48033002B0BD075
:10225000FB6903F00803002B06D07B681B6808228B
:102260005A60786800F0F5F83B6A03F40043002BED
:102270007BD0FB6903F00403002B72D03B6A03F4AC
:102280008073002B08D0FB6803F00103002B03D000
:102290007B6A43F001037B623B6A03F40073002B0B
:1022A00008D0FB6803F00203002B03D07B6A43F0E5
:1022B00002037B623B6A03F48063002B08D0FB6857
:1022C00003F00403002B03D07B6A43F004037B621A
:1022D0003B6A03F40063002B43D0FB6803F07003F8
:1022E000002B3ED0FB6803F07003602B2BD0602BDB
:1022F0002ED8502B22D0502B2AD8402B19D0402B2F
:1023000026D8302B10D0302B22D8102B02D0202BE7
:1023100005D01DE07B6A43F008037B6219E07B6A0D
:1023200043F010037B6214E07B6A43F020037B627E
:102330000FE07B6A43F040037B620AE07B6A43F074
:1023400080037B6205E07B6A43F480737B6200E07C
:1023500000BF7B681B689A697B681B6822F070026B
:102360009A617B681B6804225A607B6A002B08D044
:102370007B685A6A7B6A1A437B685A62786800F005
:1023800072F800BF2837BD4680BD80B483B000AF6F
:10239000786000BF0C37BD465DF8047B704780B4A1
:1023A00083B000AF786000BF0C37BD465DF8047B9A
:1023B000704780B483B000AF786000BF0C37BD4673
:1023C0005DF8047B704780B483B000AF786000BFD5
:1023D0000C37BD465DF8047B704780B483B000AF16
:1023E000786000BF0C37BD465DF8047B704780B451
:1023F00083B000AF786000BF0C37BD465DF8047B4A
:10240000704780B483B000AF786000BF0C37BD4622
:102410005DF8047B704780B483B000AF786000BF84
:102420000C37BD465DF8047B704780B483B000AFC5
:10243000786000BF0C37BD465DF8047B704780B400
:1024400083B000AF786000BF0C37BD465DF8047BF9
:10245000704780B483B000AF786000BF0C37BD46D2
:102460005DF8047B704780B483B000AF786000BF34
:102470000C37BD465DF8047B7047000080B485B022
:1024800000AF78607B6803F00703FB600C4BDB68F0
:10249000BB60BA684FF6FF031340BB60FB681A02CB
:1024A000BB68134343F0BF6343F40033BB60044A8B
:1024B000BB68D36000BF1437BD465DF8047B70472E
:1024C00000ED00E080B400AF044BDB681B0A03F0B2
:1024D00007031846BD465DF8047B704700ED00E039
:1024E00080B483B000AF0346FB7197F90730002B2F
:1024F0000BDBFB7903F01F02074997F907305B09F3
:10250000012000FA02F241F8232000BF0C37BD463B
:102510005DF8047B704700BF00E100E080B483B049
:1025200000AF03463960FB7197F90730002B0ADBD7
:102530003B68DAB20C4997F907301201D2B20B446A
:1025400083F800230AE03B68DAB20849FB7903F01C
:102550000F03043B1201D2B20B441A7600BF0C37B2
:10256000BD465DF8047B704700E100E000ED00E04F
:1025700080B489B000AFF860B9607A60FB6803F09E
:102580000703FB61FB69C3F10703042B28BF042386
:10259000BB61FB690433062B02D9FB69033B00E0F6
:1025A00000237B614FF0FF32BB6902FA03F3DA4389
:1025B000BB681A407B699A404FF0FF317B6901FA92
:1025C00003F3D9437B680B40134318462437BD46B9
:1025D0005DF8047B7047000080B582B000AF786082
:1025E0007B68013BB3F1807F01D301230FE00A4AEE
:1025F0007B68013B53600F214FF0FF30FFF78EFFE8
:10260000054B00229A60044B07221A6000231846EB
:102610000837BD4680BD00BF10E000E080B582B045
:1026200000AF78607868FFF729FF00BF0837BD4624
:1026300080BD80B586B000AF0346B9607A60FB7399
:1026400000237B61FFF73EFF78617A68B96878699B
:10265000FFF78EFF024697F90F3011461846FFF735
:102660005DFF00BF1837BD4680BD80B582B000AFAA
:102670000346FB7197F907301846FFF731FF00BF9B
:102680000837BD4680BD80B582B000AF78607868FD
:10269000FFF7A2FF034618460837BD4680BD80B548
:1026A00084B000AF78607B689B6DFB60FFF70AF831
:1026B000B8607B6893F83530DBB2022B08D07B68BA
:1026C00080225A657B68002283F83420012352E07F
:1026D0007B681B681A687B681B6822F016021A6008
:1026E0007B681B685A697B681B6822F080025A610C
:1026F0007B681B6C002B03D17B689B6C002B07D085
:102700007B681B681A687B681B6822F008021A60E5
:102710007B681B681A687B681B6822F001021A60DC
:1027200013E0FEF7CFFF0246BB68D31A052B0CD986
:102730007B6820225A657B68032283F835207B68FA
:10274000002283F83420032315E07B681B681B6894
:1027500003F00103002BE4D17B68DB6D3F229A403C
:10276000FB689A607B68012283F835207B68002231
:1027700083F83420002318461037BD4680BD80B44E
:1027800083B000AF78607B6893F83530DBB2022B02
:1027900004D07B6880225A6501230CE07B68052207
:1027A00083F835207B681B681A687B681B6822F0F9
:1027B00001021A60002318460C37BD465DF8047B01
:1027C0007047000080B489B000AF786039600023A2
:1027D0007B6100233B610023BB610023FB616BE154
:1027E0000122FB6902FA03F37B613B681B687A698B
:1027F00013403B613A697B699A4240F05A813B68D9
:102800005B6803F00303012B05D03B685B6803F0B2
:102810000303022B30D17B689B68BB61FB695B00C3
:10282000032202FA03F3DB43BA691340BB613B683E
:10283000DA68FB695B0002FA03F3BA691343BB6110
:102840007B68BA699A607B685B68BB610122FB693F
:1028500002FA03F3DB43BA691340BB613B685B6870
:102860001B0903F00102FB6902FA03F3BA6913437F
:10287000BB617B68BA695A603B685B6803F003031D
:10288000032B17D07B68DB68BB61FB695B0003220D
:1028900002FA03F3DB43BA691340BB613B689A68F1
:1028A000FB695B0002FA03F3BA691343BB617B68FF
:1028B000BA69DA603B685B6803F00303022B23D13B
:1028C000FB69DA087B68083253F82230BB61FB6988
:1028D00003F007039B000F2202FA03F3DB43BA69FC
:1028E0001340BB613B681A69FB6903F007039B0057
:1028F00002FA03F3BA691343BB61FB69DA087B6828
:102900000832B96943F822107B681B68BB61FB6918
:102910005B00032202FA03F3DB43BA691340BB6195
:102920003B685B6803F00302FB695B0002FA03F398
:10293000BA691343BB617B68BA691A603B685B681C
:1029400003F44033002B00F0B4800023FB60604BA5
:102950005B6C5F4A43F4804353645D4B5B6C03F4F0
:102960008043FB60FB685B4AFB699B08023352F8BB
:102970002330BB61FB6903F003039B000F2202FAC3
:1029800003F3DB43BA691340BB617B68524A93424D
:102990002BD07B68514A934225D07B68504A9342A2
:1029A0001FD07B684F4A934219D07B684E4A9342AE
:1029B00013D07B684D4A93420DD07B684C4A9342BA
:1029C00007D07B684B4A934201D107230EE00823CE
:1029D0000CE006230AE0052308E0042306E00323B5
:1029E00004E0022302E0012300E00023FA6902F080
:1029F000030292009340BA691343BB613549FB69F6
:102A00009B080233BA6941F823203B4B9B68BB61AA
:102A10003B69DB43BA691340BB613B685B6803F405
:102A20008013002B03D0BA693B691343BB61324A60
:102A3000BB699360304BDB68BB613B69DB43BA69C0
:102A40001340BB613B685B6803F40013002B03D0A9
:102A5000BA693B691343BB61274ABB69D360264B04
:102A60005B68BB613B69DB43BA691340BB613B6890
:102A70005B6803F40033002B03D0BA693B6913434E
:102A8000BB611D4ABB6953601B4B1B68BB613B6943
:102A9000DB43BA691340BB613B685B6803F4803376
:102AA000002B03D0BA693B691343BB61124ABB696F
:102AB0001360FB690133FB61FB690F2B7FF690AE5E
:102AC00000BF00BF2437BD465DF8047B704700BFE0
:102AD000003802400038014000000240000402407B
:102AE00000080240000C02400010024000140240A6
:102AF00000180240001C0240003C014080B483B03A
:102B000000AF78600B467B8013467B707B78002B90
:102B100003D07A887B689A6103E07B881A047B681B
:102B20009A6100BF0C37BD465DF8047B704780B4E6
:102B300085B000AF78600B467B807B685B69FB608B
:102B40007A88FB6813401A04FB68D9437B880B40E2
:102B50001A437B689A6100BF1437BD465DF8047B59
:102B60007047F0B58FB00AAF78607B68002B01D159
:102B700001230FE17B681B68BB607B6893F8BD3461
:102B8000DBB2002B06D17B68002283F8BC24786876
:102B900008F0C4FA7B68032283F8BD24BB68DB6BB2
:102BA00003F48073002B02D17B6800221A617B68DA
:102BB0001B68184602F013FF7B681B683B607E6849
:102BC0006D4606F110040FCC0FC50FCC0FC594E86D
:102BD000030085E80300331D0ECB386802F0EAFDE0
:102BE0000346002B05D07B68022283F8BD24012315
:102BF000D0E07B681B680021184602F001FF00232B
:102C0000FB734AE0FA7B79681346DB0013449B00B0
:102C10000B443D3301221A70FA7B79681346DB00BE
:102C200013449B000B443C33FA7B1A70FA7BFB7B0A
:102C300098B279681346DB0013449B000B4444337D
:102C400002461A80FA7B79681346DB0013449B0026
:102C50000B44403300221A70FA7B79681346DB007C
:102C600013449B000B44483300221A60FA7B7968B6
:102C70001346DB0013449B000B444C3300221A60C4
:102C8000FA7B79681346DB0013449B000B445433F2
:102C900000221A60FB7B0133FB73FA7B7B685B6865
:102CA0009A42AFD30023FB7344E0FA7B7968134662
:102CB000DB0013449B000B4403F27D2300221A70B7
:102CC000FA7B79681346DB0013449B000B4403F541
:102CD0001F73FA7B1A70FA7B79681346DB00134482
:102CE0009B000B4403F5207300221A70FA7B79686D
:102CF0001346DB0013449B000B4403F522730022B0
:102D00001A60FA7B79681346DB0013449B000B447E
:102D100003F5237300221A60FA7B79681346DB00FF
:102D200013449B000B4403F5257300221A60FB7BC0
:102D30000133FB73FA7B7B685B689A42B5D37B688F
:102D40001B683B607E686D4606F110040FCC0FC512
:102D50000FCC0FC594E8030085E80300331D0ECBAC
:102D6000386802F099FE0346002B05D07B680222EA
:102D700083F8BD2401230DE07B68002283F838200E
:102D80007B68012283F8BD247B681B68184603F02A
:102D9000E8FF002318461437BD46F0BD80B584B067
:102DA00000AF78607B681B68FB607B6893F8BC347D
:102DB000012B01D1022320E07B68012283F8BC248F
:102DC0007B689B6A012B09D17B689B69012B05D02D
:102DD000FB689B6B43F48032FB689A637B681B68DB
:102DE000184602F0EBFD7B681B68184603F098FF5D
:102DF0007B68002283F8BC24002318461037BD46A8
:102E000080BD90B58DB000AF78607B681B683B6279
:102E10003B6AFB617B681B68184604F056F8034662
:102E2000002B40F08A847B681B68184603F0BAFFC9
:102E30000346002B00F08084FB6903F500639B6868
:102E40001B0AC3F30D027B68C3F8FC247B681B6874
:102E5000184603F0A7FF034603F00203022B07D135
:102E60007B681B685A697B681B6802F002025A6122
:102E70007B681B68184603F095FF034603F01003B8
:102E8000102B61D17B681B689A697B681B6822F0F4
:102E900010029A613B6A1B6ABB61BB6903F00F02B7
:102EA0001346DB0013449B0003F51E737A6813443A
:102EB00004337B61BB695B0C03F00F03022B24D14D
:102EC000BA6947F6F0731340002B35D07B69196956
:102ED000BB691B099BB2C3F30A039BB21A46386A4B
:102EE00003F0CCFD7B691A69BB691B09C3F30A03B4
:102EF0001A447B691A617B691A6ABB691B09C3F3AF
:102F00000A031A447B691A6216E0BB695B0C03F082
:102F10000F03062B10D17B6803F2C4430822194625
:102F2000386A03F0ABFD7B691A6ABB691B09C3F3FE
:102F30000A031A447B691A627B681B689A697B687A
:102F40001B6842F010029A617B681B68184603F008
:102F500029FF034603F40023B3F5002F40F0A780B8
:102F600000237B627B681B68184603F02EFFB86263
:102F700099E0BB6A03F00103002B00F08E807B68B0
:102F80001B687A6AD2B21146184603F052FF3861C4
:102F90003B6903F00103002B0CD07B6A5A01FB69EB
:102FA000134403F530631A4601239360796A786805
:102FB00000F0C2FE3B6903F00803002B0CD07B6AD3
:102FC0005A01FB69134403F530631A4608239360E2
:102FD000796A786800F098FF3B6903F01003002BD2
:102FE00008D07B6A5A01FB69134403F530631A4623
:102FF000102393603B6903F00203002B30D03B6A3F
:103000005B6903F08003802B09D1FB6903F5006342
:103010005B68FA6902F5006243F4806353607A6A80
:103020001346DB0013449B0003F51E737A681344B8
:1030300004337B617B69DB78012B08D17B6900223B
:10304000DA707B6ADBB21946786808F06DF97B6A42
:103050005A01FB69134403F530631A460223936057
:103060003B6903F02003002B08D07B6A5A01FB69FF
:10307000134403F530631A46202393603B6903F43D
:103080000053002B09D07B6A5A01FB69134403F5F6
:1030900030631A464FF4005393607B6A01337B62BE
:1030A000BB6A5B08BB62BB6A002B7FF462AF7B68C4
:1030B0001B68184603F076FE034603F48023B3F53D
:1030C000802F40F0DB807B681B68184603F097FE7A
:1030D000B86200237B62CDE0BB6A03F00103002BE2
:1030E00000F0C2807B681B687A6AD2B2114618462B
:1030F00003F0BDFE38613B6903F00103002B57D09C
:103100007B6A03F00F03012202FA03F3FB60FB6901
:1031100003F500635A6BFB68DB43F96901F5006155
:1031200013404B637B6A5A01FB69134403F5106338
:103130001A46012393607B681B69012B32D17968A1
:103140007A6A1346DB0013449B000B444C33196826
:1031500078687A6A1346DB0013449B0003444833C3
:103160001B68194478687A6A1346DB0013449B0095
:1031700003444C3319607B6A002B13D179687A6A57
:103180001346DB0013449B000B4454331B68002B95
:1031900008D17B6818687B6803F2C4431A46012192
:1031A00003F0C4FE7B6ADBB21946786808F037F892
:1031B0003B6903F00803002B08D07B6A5A01FB69C6
:1031C000134403F510631A46082393603B6903F028
:1031D0001003002B08D07B6A5A01FB69134403F5E6
:1031E00010631A46102393603B6903F04003002BE1
:1031F00008D07B6A5A01FB69134403F510631A4631
:10320000402393603B6903F00203002B23D0796ACB
:10321000386A02F0A5FD7A6A1346DB0013449B006E
:1032200038337A68134404337B617B69DB78012B84
:1032300008D17B690022DA707B6ADBB219467868B4
:1032400008F084F87B6A5A01FB69134403F51063A4
:103250001A46022393603B6903F08003002B03D0DE
:10326000796A786800F0DBFC7B6A01337B62BB6AB9
:103270005B08BB62BB6A002B7FF42EAF7B681B68C8
:10328000184603F08FFD034603F00043B3F1004FEF
:1032900022D1FB6903F500635B68FA6902F50062FD
:1032A00023F0010353607B6893F8F434012B08D1B9
:1032B0007B68002283F8F4240021786800F0C2FEC5
:1032C00002E0786808F022F87B681B685A697B681E
:1032D0001B6802F000425A617B681B68184603F0C5
:1032E00061FD034603F40063B3F5006F12D1FB697F
:1032F00003F500639B6803F00103012B02D178689A
:1033000007F0DEFF7B681B685A697B681B6802F464
:1033100000625A617B681B68184603F043FD034650
:1033200003F48053B3F5805F40F0B780FB6903F589
:1033300000635B68FA6902F5006223F001035360E1
:103340007B681B681021184602F00AFD0023FB620F
:1033500046E0FB6A5A01FB69134403F510631A4601
:103360004FF67F339360FB6A5A01FB69134403F500
:1033700010631B68FA6A5101FA690A4402F5106287
:1033800023F400131360FB6A5A01FB69134403F52D
:1033900030631A464FF67F339360FB6A5A01FB692C
:1033A000134403F530631B68FA6A5101FA690A4451
:1033B00002F5306223F400131360FB6A5A01FB69C3
:1033C000134403F530631B68FA6A5101FA690A4431
:1033D00002F5306243F000631360FB6A0133FB6265
:1033E0007B685B68FA6A9A42B3D3FB6903F50063B2
:1033F000DB69FA6902F5006243F00113D3617B686F
:103400001B6B002B16D0FB6903F50063D3F88430E7
:10341000FA6902F5006243F00B03C2F88430FB69DD
:1034200003F500635B6CFA6902F5006243F00B037D
:10343000536415E0FB6903F500635B69FA6902F503
:10344000006243F4005343F02B035361FB6903F51F
:1034500000631B69FA6902F5006243F00B03136114
:10346000FB6903F500631B68FA6902F5006223F447
:10347000FE6313607B6818687B681B69D9B27B6840
:1034800003F2C4431A4603F051FD7B681B685A6976
:103490007B681B6802F480525A617B681B6818467F
:1034A00003F080FC034603F40053B3F5005F24D11E
:1034B0007B681B68184603F016FD7B681B6818467E
:1034C00002F0CBFC03461A467B68DA607B681C6816
:1034D00001F028FA01467B68DB68DBB21A46204619
:1034E00002F0CAF9786807F0C2FE7B681B685A6967
:1034F0007B681B6802F400525A617B681B6818469F
:1035000003F050FC034603F00803082B0AD1786847
:1035100007F09FFE7B681B685A697B681B6802F096
:1035200008025A617B681B68184603F03BFC03469F
:1035300003F08003802B22D13B6A9B6923F0800239
:103540003B6A9A6101237B6214E079687A6A1346C8
:10355000DB0013449B000B4403F27F231B78012BF9
:1035600005D17B6ADBB21946786800F027FB7B6ADD
:1035700001337B627B685B687A6A9A42E5D37B6839
:103580001B68184603F00EFC034603F48013B3F5E2
:10359000801F3BD101237B622BE07B6A5A01FB69D0
:1035A000134403F510631B68BB6179687A6A13469C
:1035B000DB0013449B000B4440331B78012B15D1D7
:1035C000BB69002B12DA79687A6A1346DB00134470
:1035D0009B000B443F3301221A707B6ADBB263F01D
:1035E0007F03DBB21946786800F0E8FA7B6A0133A2
:1035F0007B627B685B687A6A9A42CED37B681B6881
:103600005A697B681B6802F480125A617B681B68E8
:10361000184603F0C7FB034603F40013B3F5001F7D
:1036200055D101237B6245E07B6A5A01FB69134453
:1036300003F530631B68BB6179687A6A1346DB0067
:1036400013449B000B4403F520731B78012B2ED1F0
:10365000BB69002B2BDABB6903F480327B68D3F89B
:10366000FC3403F001039A4221D179687A6A134647
:10367000DB0013449B000B4403F27F2301221A70EA
:103680003B6A9B6943F080023B6A9A613B6A5B69D3
:1036900003F08003002B0AD1FB6903F500635B682C
:1036A000FA6902F5006243F40073536007E07B6A35
:1036B00001337B627B685B687A6A9A42B4D37B6829
:1036C0001B685A697B681B6802F400125A617B68A8
:1036D0001B68184603F066FB034603F08043B3F112
:1036E000804F0AD1786807F043FE7B681B685A69EF
:1036F0007B681B6802F080425A617B681B68184631
:1037000003F050FB034603F00403042B15D17B6840
:103710001B685B68BB61BB6903F00403002B02D02C
:10372000786807F033FE7B681B6859687B681B6804
:10373000BA690A435A6000E000BF3437BD4690BD05
:1037400080B582B000AF78600B46FB707B6893F861
:10375000BC34012B01D1022313E07B68012283F8E2
:10376000BC247B68FA7883F838207B681B68FA7879
:103770001146184603F0AEFA7B68002283F8BC2499
:10378000002318460837BD4680BD80B584B000AF21
:103790007860084611461A460346FB700B463B808C
:1037A0001346BB700023FB7297F90330002B0FDA2E
:1037B000FB7803F00F021346DB0013449B00383301
:1037C0007A6813440433FB60FB6801225A700FE0EF
:1037D000FB7803F00F021346DB0013449B0003F554
:1037E0001E737A6813440433FB60FB6800225A702E
:1037F000FB7803F00F03DAB2FB681A703A88FB68B3
:10380000DA60FB68BA781A71FB685B78002B04D029
:10381000FB681B789AB2FB681A81BB78022B02D135
:10382000FB6800225A717B6893F8BC34012B01D1EC
:1038300002230EE07B68012283F8BC247B681B68AE
:10384000F968184602F02EFB7B68002283F8BC243E
:10385000FB7A18461037BD4680BD80B584B000AFF6
:1038600078600B46FB7097F90330002B0FDAFB787A
:1038700003F00F021346DB0013449B0038337A68D1
:1038800013440433FB60FB6801225A700FE0FB789D
:1038900003F00F021346DB0013449B0003F51E7375
:1038A0007A6813440433FB60FB6800225A70FB788B
:1038B00003F00F03DAB2FB681A707B6893F8BC342C
:1038C000012B01D102230EE07B68012283F8BC2486
:1038D0007B681B68F968184602F06CFB7B68002265
:1038E00083F8BC24002318461037BD4680BD80B540
:1038F00086B000AFF8607A603B600B46FB72FB7AE3
:1039000003F00F021346DB0013449B0003F51E7304
:10391000FA68134404337B617B697A681A617B69B6
:103920003A689A617B6900221A627B6900225A70A8
:10393000FB7A03F00F03DAB27B691A70FB681B692C
:10394000012B02D17A687B695A61FB7A03F00F037D
:10395000002B09D1FB681868FB681B69DBB21A46AB
:10396000796902F04BFE08E0FB681868FB681B6988
:10397000DBB21A46796902F0F9FB002318461837C2
:10398000BD4680BD80B483B000AF78600B46FB704D
:10399000FB7803F00F0279681346DB0013449B00A9
:1039A0000B4403F527731B6818460C37BD465DF8BA
:1039B000047B704780B586B000AFF8607A603B60EA
:1039C0000B46FB72FB7A03F00F021346DB00134435
:1039D0009B003833FA68134404337B617B697A684F
:1039E0001A617B693A689A617B6900221A627B6975
:1039F00001225A70FB7A03F00F03DAB27B691A7066
:103A0000FB681B69012B02D17A687B695A61FB7ADA
:103A100003F00F03002B09D1FB681868FB681B69D2
:103A2000DBB21A46796902F0E9FD08E0FB68186824
:103A3000FB681B69DBB21A46796902F097FB002329
:103A400018461837BD4680BD80B584B000AF786099
:103A50000B46FB70FB7803F00F027B685B689A42B1
:103A600001D9012350E097F90330002B0FDAFB78DE
:103A700003F00F021346DB0013449B0038337A68CF
:103A800013440433FB60FB6801225A700DE0FA789E
:103A90001346DB0013449B0003F51E737A6813443E
:103AA0000433FB60FB6800225A70FB6801229A70A5
:103AB000FB7803F00F03DAB2FB681A707B6893F8A7
:103AC000BC34012B01D102231EE07B68012283F864
:103AD000BC247B681B68F968184603F027F8FB785C
:103AE00003F00F03002B0AD17B6818687B681B6901
:103AF000D9B27B6803F2C4431A4603F017FA7B6815
:103B0000002283F8BC24002318461037BD4680BD30
:103B100080B584B000AF78600B46FB70FB7803F093
:103B20000F027B685B689A4201D9012342E097F952
:103B30000330002B0FDAFB7803F00F021346DB0093
:103B400013449B0038337A6813440433FB60FB68EA
:103B500001225A700FE0FB7803F00F021346DB00DE
:103B600013449B0003F51E737A6813440433FB600F
:103B7000FB6800225A70FB6800229A70FB7803F001
:103B80000F03DAB2FB681A707B6893F8BC34012B20
:103B900001D102230EE07B68012283F8BC247B68FC
:103BA0001B68F968184603F02FF87B68002283F839
:103BB000BC24002318461037BD4680BD80B584B0B4
:103BC00000AF78600B46FB7097F90330002B0CDADE
:103BD000FB7803F00F021346DB0013449B003833DD
:103BE0007A6813440433FB600CE0FB7803F00F02A7
:103BF0001346DB0013449B0003F51E737A681344DD
:103C00000433FB607B681B68F968184602F04EFEBF
:103C10000346FB72FB7A18461037BD4680BD80B55F
:103C20008AB002AF786039607B681B687B617B6912
:103C30003B613A681346DB0013449B0038337A68D3
:103C400013440433FB60FB681A6AFB689B699A4261
:103C500001D901236CE0FB689A69FB681B6AD31ADF
:103C6000FB61FB68DB68FA699A4202D9FB68DB6892
:103C7000FB61FB6903339B08BB612BE0FB689A691E
:103C8000FB681B6AD31AFB61FB68DB68FA699A421E
:103C900002D9FB68DB68FB61FB6903339B08BB61EE
:103CA000FB6819693B68DAB2FB6998B27B681B69EB
:103CB000DBB200930346786902F0A2FEFB681A6942
:103CC000FB691A44FB681A61FB681A6AFB691A44AB
:103CD000FB681A623B685A013B69134403F51063A1
:103CE0009B699BB2BA699A4209D8FB681A6AFB6859
:103CF0009B699A4203D2FB689B69002BBED1FB688B
:103D00009A69FB681B6A9A4211D83B6803F00F035B
:103D1000012202FA03F3BB603B6903F500635A6BAF
:103D2000BB68DB43396901F5006113404B63002335
:103D300018462037BD4680BD80B588B000AF78609A
:103D400039607B681B68FB61FB69BB61FB693C33C5
:103D500004331B687B613B685A01BB69134403F55C
:103D600030639B683B617B681B69012B7BD13B699E
:103D700003F00803002B15D07B69614A934240F29F
:103D8000B9803B6903F40043002B00F0B3803B682B
:103D90005A01BB69134403F530631A464FF40043DC
:103DA0009360A7E03B6903F02003002B09D03B6838
:103DB0005A01BB69134403F530631A46202393600C
:103DC00098E03B6903F02803002B40F093807B6967
:103DD0004B4A93420FD93B6903F40043002B0AD0AE
:103DE0003B685A01BB69134403F530631A464FF42C
:103DF000004393607EE03A681346DB0013449B0067
:103E000003F51E737A6813440433FB60FB68DA69B8
:103E10003B685901BB690B4403F530631B69C3F36D
:103E20001203D21AFB681A623B68002B14D1FB689C
:103E30009B69002B09D17B6818687B6803F2C44337
:103E40001A46012103F072F806E0FB681A69FB6864
:103E50001B6A1A44FB681A613B68DBB21946786832
:103E600007F0C2F946E07B69264A934224D13B69B8
:103E700003F40043002B0AD03B685A01BB6913448A
:103E800003F530631A464FF40043936032E03B6918
:103E900003F02003002B08D03B685A01BB69134490
:103EA00003F530631A46202393603B68DBB2194662
:103EB000786807F099F91DE03B68002B14D1796808
:103EC0003A681346DB0013449B000B4403F525734B
:103ED0001B68002B08D17B6818687B6803F2C44319
:103EE0001A46002103F022F83B68DBB219467868D5
:103EF00007F07AF9002318462037BD4680BD00BF81
:103F00000A30544F0A31544F80B586B000AF786004
:103F100039607B681B687B617B693B617B693C33F3
:103F200004331B68FB603B685A013B69134403F58B
:103F300030639B68BB60FB68154A93420ED9BB682F
:103F400003F40043002B09D03B685A013B6913443A
:103F500003F530631A464FF400439360786807F026
:103F600031F9FB680A4A93420CD97B681B69012B23
:103F700008D17B6818687B6803F2C4431A460121A4
:103F800002F0D4FF002318461837BD4680BD00BF9D
:103F90000A30544F80B485B000AF78600B46FB7098
:103FA00013463B807B681B685B6ABB60FB78002B19
:103FB00007D13B8819047B681B68BA680A439A6278
:103FC00028E07B681B689B6A1B0CBA681344BB60C3
:103FD0000023FB730DE07B681A68FB7B40339B007A
:103FE00013445B681B0CBA681344BB60FB7B013352
:103FF000FB73FA7BFB78013B9A42ECD33B881804B5
:104000007B681968FB78013BBA68024340339B0028
:104010000B445A60002318461437BD465DF8047BF4
:10402000704780B483B000AF78600B467B807B68BC
:104030001B687A885A62002318460C37BD465DF823
:10404000047B704780B483B000AF78600B46FB7090
:1040500000BF0C37BD465DF8047B704780B586B065
:1040600000AF78607B68002B01D1012367E27B6899
:104070001B6803F00103002B75D0884B9B6803F08D
:104080000C03042B0CD0854B9B6803F00C03082B0E
:1040900012D1824B5B6803F48003B3F5800F0BD120
:1040A0007E4B1B6803F40033002B5BD07B685B689E
:1040B000002B57D1012342E27B685B68B3F5803F58
:1040C00006D1764B1B68754A43F4803313601DE0BC
:1040D0007B685B68B3F5A02F0CD1704B1B686F4AEF
:1040E00043F4802313606D4B1B686C4A43F48033A8
:1040F00013600BE0694B1B68684A23F4803313603C
:10410000664B1B68654A23F4802313607B685B68F9
:10411000002B13D0FDF7D6FA386108E0FDF7D2FA8C
:1041200002463B69D31A642B01D9032307E25B4B98
:104130001B6803F40033002BF0D014E0FDF7C2FA43
:10414000386108E0FDF7BEFA02463B69D31A642BDA
:1041500001D90323F3E1514B1B6803F40033002B17
:10416000F0D100E000BF7B681B6803F00203002B66
:1041700063D04A4B9B6803F00C03002B0BD0474BDA
:104180009B6803F00C03082B1CD1444B5B6803F4C1
:104190008003002B16D1414B1B6803F00203002B58
:1041A00005D07B68DB68012B01D00123C7E13B4BC5
:1041B0001B6823F0F8027B681B69DB003749134357
:1041C0000B603AE07B68DB68002B20D0344B012287
:1041D0001A60FDF777FA386108E0FDF773FA0246D6
:1041E0003B69D31A022B01D90323A8E12B4B1B688F
:1041F00003F00203002BF0D0284B1B6823F0F802D9
:104200007B681B69DB00254913430B6015E0244BD9
:1042100000221A60FDF756FA386108E0FDF752FAFD
:1042200002463B69D31A022B01D9032387E11B4BBA
:104230001B6803F00203002BF0D17B681B6803F0BE
:104240000803002B36D07B685B69002B16D0154B1A
:1042500001221A60FDF736FA386108E0FDF732FAFC
:1042600002463B69D31A022B01D9032367E10B4BAA
:104270005B6F03F00203002BF0D01BE0094B002220
:104280001A60FDF71FFA38610EE0FDF71BFA0246CF
:104290003B69D31A022B07D9032350E100380240AF
:1042A00000004742800E4742884B5B6F03F00203D9
:1042B000002BEAD17B681B6803F00403002B00F09D
:1042C00097800023FB75814B1B6C03F08053002B00
:1042D0000FD10023BB607D4B1B6C7C4A43F08053A5
:1042E00013647A4B1B6C03F08053BB60BB680123E3
:1042F000FB75774B1B6803F48073002B18D1744B4C
:104300001B68734A43F480731360FDF7DBF938616F
:1043100008E0FDF7D7F902463B69D31A022B01D911
:1043200003230CE16A4B1B6803F48073002BF0D06D
:104330007B689B68012B06D1644B1B6F634A43F07B
:10434000010313671CE07B689B68052B0CD15F4B56
:104350001B6F5E4A43F0040313675C4B1B6F5B4AA1
:1043600043F0010313670BE0584B1B6F574A23F0D0
:1043700001031367554B1B6F544A23F00403136763
:104380007B689B68002B15D0FDF79CF938610AE02B
:10439000FDF798F902463B69D31A41F288329342FD
:1043A00001D90323CBE0494B1B6F03F00203002B21
:1043B000EED014E0FDF786F938610AE0FDF782F9E6
:1043C00002463B69D31A41F28832934201D9032352
:1043D000B5E03E4B1B6F03F00203002BEED1FB7DDB
:1043E000012B05D1394B1B6C384A23F080531364E1
:1043F0007B689B69002B00F0A180344B9B6803F025
:104400000C03082B5CD07B689B69022B41D1314B9C
:1044100000221A60FDF756F9386108E0FDF752F9FD
:1044200002463B69D31A022B01D9032387E0274BAD
:104430001B6803F00073002BF0D17B68DA697B689E
:104440001B6A1A437B685B6A9B011A437B689B6A01
:104450005B08013B1B041A437B68DB6A1B061B4994
:1044600013434B601B4B01221A60FDF72BF9386197
:1044700008E0FDF727F902463B69D31A022B01D960
:1044800003235CE0114B1B6803F00073002BF0D09A
:1044900054E0104B00221A60FDF714F9386108E06F
:1044A000FDF710F902463B69D31A022B01D9032309
:1044B00045E0064B1B6803F00073002BF0D13DE094
:1044C0007B689B69012B07D1012338E0003802404B
:1044D00000700040600047421B4B5B68FB607B68DC
:1044E0009B69012B28D0FB6803F480027B68DB69A1
:1044F0009A4221D1FB6803F03F027B681B6A9A4213
:104500001AD1FA6847F6C07313407A68526A92016A
:10451000934211D1FB6803F440327B689B6A5B08CD
:10452000013B1B049A4207D1FB6803F070627B6871
:10453000DB6A1B069A4201D0012300E000231846E3
:104540001837BD4680BD00BF0038024080B584B03A
:1045500000AF786039607B68002B01D10123CCE08B
:10456000684B1B6803F007033A689A420CD9654B05
:104570003A68D2B21A70634B1B6803F007033A68BB
:104580009A4201D00123B8E07B681B6803F0020364
:10459000002B20D07B681B6803F00403002B05D0A0
:1045A000594B9B68584A43F4E05393607B681B68FF
:1045B00003F00803002B05D0534B9B68524A43F489
:1045C00060439360504B9B6823F0F0027B689B68CC
:1045D0004D4913438B607B681B6803F00103002B7C
:1045E00044D07B685B68012B07D1474B1B6803F401
:1045F0000033002B19D101237FE07B685B68022B1D
:1046000003D07B685B68032B07D13F4B1B6803F02B
:104610000073002B09D101236FE03B4B1B6803F0B3
:104620000203002B01D1012367E0374B9B6823F085
:1046300003027B685B68344913438B60FDF742F8E3
:10464000F8600AE0FDF73EF80246FB68D31A41F233
:104650008832934201D903234FE02B4B9B6803F030
:104660000C027B685B689B009A42EBD1254B1B6870
:1046700003F007033A689A420CD2224B3A68D2B24E
:104680001A70204B1B6803F007033A689A4201D066
:10469000012332E07B681B6803F00403002B08D081
:1046A000194B9B6823F4E0527B68DB68164913437F
:1046B0008B607B681B6803F00803002B09D0124B4A
:1046C0009B6823F460427B681B69DB000E4913433F
:1046D0008B6000F021F802460B4B9B681B0903F02E
:1046E0000F030A49CB5C22FA03F3094A1360094B12
:1046F0001B681846FCF7A2FF002318461037BD467A
:1047000080BD00BF003C0240003802400CE80008B9
:1047100000000020040000202DE9B04F94B000AF4D
:1047200000237B640023FB6400233B640023BB6401
:10473000794B9B6803F00C03082B0DD0082B00F27B
:10474000E180002B02D0042B03D0DBE0734BBB6471
:10475000DBE0734BBB64D8E06F4B5B6803F03F0357
:104760007B646D4B5B6803F48003002B63D06A4B62
:104770005B689B090022BB63FA63BB6BC3F308034E
:104780003B6300237B63D7E90C4522462B464FF061
:1047900000004FF00001590141EAD2615001024688
:1047A0000B462146511A3961294663EB01037B61AF
:1047B0004FF000024FF00003D7E904AB59468B01DC
:1047C000514643EA916351468A015146B2EB0108D2
:1047D000594663EB01094FF000024FF000034FEA26
:1047E000C90343EA58734FEAC802904699462346E4
:1047F00018EB0303BB602B4649EB0303FB604FF050
:1048000000024FF00003D7E9024529464B0221463A
:1048100043EAD15321464A02104619467B6C0022D6
:10482000BB62FA62D7E90A23FCF7CEF902460B46CF
:104830001346FB6458E0384B5B689B09002218461E
:104840001146C0F308033B6200237B62D7E9088965
:1048500042464B464FF000004FF00001590141EA3B
:10486000D261500102460B464146B2EB010A49466D
:1048700063EB010B4FF000024FF000034FEA8B1384
:1048800043EA9A634FEA8A12B2EB0A0463EB0B0520
:104890004FF000024FF00003EB0043EA5473E200D4
:1048A00014461D464346E3183B604B4645EB030365
:1048B0007B604FF000024FF00003D7E90045294626
:1048C0008B02214643EA915321468A02104619463B
:1048D0007B6C0022BB61FA61D7E90623FCF774F90F
:1048E00002460B461346FB640B4B5B681B0C03F044
:1048F000030301335B003B64FA6C3B6CB2FBF3F3E4
:10490000BB6402E0054BBB6400BFBB6C184650376C
:10491000BD46BDE8B08F00BF003802400024F4005F
:1049200000127A0080B400AF034B1B681846BD46E6
:104930005DF8047B704700BF0000002080B500AF29
:10494000FFF7F0FF0246054B9B689B0A03F0070345
:104950000349CB5C22FA03F3184680BD00380240BD
:104960001CE8000880B500AFFFF7DCFF0246054BEE
:104970009B685B0B03F007030349CB5C22FA03F34C
:10498000184680BD003802401CE8000880B582B09F
:1049900000AF78607B68002B01D101233FE07B688A
:1049A00093F83D30DBB2002B06D17B68002283F800
:1049B0003C207868FCF7A6FD7B68242283F83D2024
:1049C0007B681B68DA687B681B6822F40052DA6037
:1049D000786800F07BFC7B681B681A697B681B6841
:1049E00022F490421A617B681B685A697B681B68D5
:1049F00022F02A025A617B681B68DA687B681B68B0
:104A000042F40052DA607B6800221A647B6820223C
:104A100083F83D207B68202283F83E20002318463F
:104A20000837BD4680BD000080B5BAB000AF7860E1
:104A30007B681B681B68C7F8E4307B681B68DB6811
:104A4000C7F8E0307B681B685B69C7F8DC3000237F
:104A5000C7F8D8300023C7F8D430D7F8E43003F0D3
:104A60000F03C7F8D830D7F8D830002B0FD1D7F8BC
:104A7000E43003F02003002B09D0D7F8E03003F036
:104A80002003002B03D0786800F065FB56E2D7F8CE
:104A9000D830002B00F0DE80D7F8DC3003F00103C3
:104AA000002B06D1D7F8E03003F49073002B00F010
:104AB000D180D7F8E43003F00103002B0BD0D7F8F6
:104AC000E03003F48073002B05D07B681B6C43F04F
:104AD00001027B681A64D7F8E43003F00403002B6A
:104AE0000BD0D7F8DC3003F00103002B05D07B6836
:104AF0001B6C43F002027B681A64D7F8E43003F0C1
:104B00000203002B0BD0D7F8DC3003F00103002B9D
:104B100005D07B681B6C43F004027B681A64D7F8ED
:104B2000E43003F00803002B11D0D7F8E03003F095
:104B30002003002B05D1D7F8DC3003F00103002B54
:104B400005D07B681B6C43F008027B681A647B68A5
:104B50001B6C002B00F0ED81D7F8E43003F020034C
:104B6000002B08D0D7F8E03003F02003002B02D050
:104B7000786800F0F0FA7B681B685B6903F040031B
:104B8000402B0CBF01230023DBB2C7F8D4307B6875
:104B90001B6C03F00803002B03D1D7F8D430002B93
:104BA0004FD0786800F0F8F97B681B685B6903F008
:104BB0004003402B41D17B681B681433C7F89C30FD
:104BC000D7F89C3053E8003FC7F89830D7F89830B2
:104BD00023F04003C7F8D0307B681B681433D7F844
:104BE000D020C7F8A820C7F8A430D7F8A410D7F869
:104BF000A82041E80023C7F8A030D7F8A030002B48
:104C0000D9D17B689B6B002B13D07B689B6B7D4A53
:104C10001A657B689B6B1846FDF7B1FD0346002BB8
:104C200016D07B689B6B1B6D7A68926B1046984719
:104C30000EE0786800F09AF90AE0786800F096F9DA
:104C400006E0786800F092F97B6800221A6470E14F
:104C500000BF6EE17B681B6B012B40F04A81D7F8E7
:104C6000E43003F01003002B00F04381D7F8E0306C
:104C700003F01003002B00F03C810023BB607B6835
:104C80001B681B68BB607B681B685B68BB60BB689C
:104C90007B681B685B6903F04003402B40F0B480E5
:104CA0007B689B6B1B685B68A7F8BE30B7F8BE30AB
:104CB000002B00F040817B689B8DB7F8BE209A42A4
:104CC00080F039817B68B7F8BE20DA857B689B6B02
:104CD000DB69B3F5807F00F088807B681B680C334C
:104CE000C7F88830D7F8883053E8003FC7F88430D9
:104CF000D7F8843023F48073C7F8B8307B681B681A
:104D00000C33D7F8B820C7F89420C7F89030D7F8FC
:104D10009010D7F8942041E80023C7F88C30D7F8DA
:104D20008C30002BD9D17B681B6814337B677B6F79
:104D300053E8003F3B673B6F23F00103C7F8B430F3
:104D40007B681B681433D7F8B420C7F88020FB6752
:104D5000F96FD7F8802041E80023BB67BB6F002BB9
:104D6000E1D17B681B6814333B663B6E53E8003F20
:104D7000FB65FB6D23F04003C7F8B0307B681B6810
:104D80001433D7F8B020FA66BB66B96EFA6E41E804
:104D900000237B667B6E002BE3D17B68202283F8A7
:104DA0003E207B6800221A637B681B680C33FB641F
:104DB000FB6C53E8003FBB64BB6C23F01003C7F8E7
:104DC000AC307B681B680C33D7F8AC20BA657B65C8
:104DD000796DBA6D41E800233B653B6D002BE3D153
:104DE0007B689B6B1846FDF75AFC7B689A8D7B6845
:104DF000DB8D9BB2D31A9BB21946786800F0C0F8DD
:104E000099E000BF5F5000087B689A8D7B68DB8D5E
:104E10009BB2D31AA7F8CE307B68DB8D9BB2002BF8
:104E200000F08B80B7F8CE30002B00F086807B68D6
:104E30001B680C33BB63BB6B53E8003F7B637B6B2E
:104E400023F49073C7F8C8307B681B680C33D7F81D
:104E5000C8207A643B64396C7A6C41E80023FB63B8
:104E6000FB6B002BE3D17B681B6814337B627B6A8E
:104E700053E8003F3B623B6A23F00103C7F8C430AC
:104E80007B681B681433D7F8C4203A63FB62F96A65
:104E90003A6B41E80023BB62BB6A002BE3D17B681D
:104EA000202283F83E207B6800221A637B681B68FF
:104EB0000C333B613B6953E8003FFB60FB6823F028
:104EC0001003C7F8C0307B681B680C33D7F8C020CC
:104ED000FA61BB61B969FA6941E800237B617B69CA
:104EE000002BE3D1B7F8CE301946786800F048F8C7
:104EF00023E0D7F8E43003F08003002B09D0D7F883
:104F0000E03003F08003002B03D0786800F0BBF89A
:104F100014E0D7F8E43003F04003002B0ED0D7F8AC
:104F2000E03003F04003002B08D0786800F0FBF875
:104F300004E000BF02E000BF00E000BFE837BD466C
:104F400080BD00BF80B483B000AF786000BF0C3775
:104F5000BD465DF8047B704780B483B000AF7860D5
:104F600000BF0C37BD465DF8047B704780B483B04A
:104F700000AF786000BF0C37BD465DF8047B70471A
:104F800080B483B000AF78600B467B8000BF0C37E5
:104F9000BD465DF8047B704780B495B000AF786083
:104FA0007B681B680C337B637B6B53E8003F3B6380
:104FB0003B6B23F49073FB647B681B680C33FA6CC7
:104FC0003A64FB63F96B3A6C41E80023BB63BB6B4B
:104FD000002BE5D17B681B6814333B623B6A53E8C6
:104FE000003FFB61FB6923F00103BB647B681B6826
:104FF0001433BA6CFA62BB62B96AFA6A41E80023F8
:105000007B627B6A002BE5D17B681B6B012B19D17E
:105010007B681B680C33FB60FB6853E8003FBB6098
:10502000BB6823F010037B647B681B680C337A6CCD
:10503000BA617B617969BA6941E800233B613B69E8
:10504000002BE5D17B68202283F83E207B6800227C
:105050001A6300BF5437BD465DF8047B704780B5C6
:1050600084B000AF78607B689B6BFB60FB680022BC
:10507000DA85FB680022DA84F868FFF777FF00BF63
:105080001037BD4680BD80B485B000AF78607B68C6
:1050900093F83D30DBB2212B3ED17B689B68B3F5A2
:1050A000805F14D17B681B69002B10D17B681B6A61
:1050B000FB60FB681B881A467B681B68C2F308020A
:1050C0005A607B681B6A9A1C7B681A6208E07B68DE
:1050D0001B6A591C7A6811621A787B681B685A60CF
:1050E0007B68DB8C9BB2013B9BB27A681946D1840A
:1050F000002B0FD17B681B68DA687B681B6822F085
:105100008002DA607B681B68DA687B681B6842F0A3
:105110004002DA60002300E0022318461437BD463F
:105120005DF8047B704780B582B000AF78607B6823
:105130001B68DA687B681B6822F04002DA607B68D3
:10514000202283F83D207868FFF7FCFE00231846F4
:105150000837BD4680BD80B58CB000AF78607B68F5
:1051600093F83E30DBB2222B40F0AB807B689B682B
:10517000B3F5805F17D17B681B69002B13D1002327
:10518000FB627B689B6ABB627B681B685B689BB247
:10519000C3F308039AB2BB6A1A807B689B6A9A1CA5
:1051A0007B689A6226E07B689B6AFB620023BB6295
:1051B0007B689B68B3F5805F07D07B689B68002B9A
:1051C0000AD17B681B69002B06D17B681B685B6872
:1051D000DAB2FB6A1A7008E07B681B685B68DBB2B6
:1051E00003F07F03DAB2FB6A1A707B689B6A5A1C71
:1051F0007B689A627B68DB8D9BB2013B9BB27A68CD
:105200001946D185002B5AD17B681B68DA687B6808
:105210001B6822F02002DA607B681B68DA687B6812
:105220001B6822F48072DA607B681B685A697B68AD
:105230001B6822F001025A617B68202283F83E201D
:105240007B681B6B012B35D17B6800221A637B685E
:105250001B680C337B617B6953E8003F3B613B6912
:1052600023F010037B627B681B680C337A6A3A6216
:10527000FB61F9693A6A41E80023BB61BB69002B15
:10528000E5D17B681B681B6803F01003102B0AD163
:105290000023FB607B681B681B68FB607B681B68E6
:1052A0005B68FB60FB687B689B8D19467868FFF73D
:1052B00067FE02E07868FFF74FFE002302E000235C
:1052C00000E0022318463037BD4680BD2DE9B04FBF
:1052D000C0B000AFC7F8F400D7F8F4301B681B6902
:1052E00023F44050D7F8F430D968D7F8F4301A686E
:1052F00040EA01031361D7F8F4309A68D7F8F43024
:105300001B691A43D7F8F4305B691A43D7F8F430B5
:10531000DB691343C7F8F830D7F8F4301B68DB6853
:1053200023F4164121F00C01D7F8F4301A68D7F8AD
:10533000F8300B43D360D7F8F4301B685B6923F473
:105340004070D7F8F4309969D7F8F4301A6840EA19
:1053500001035361D7F8F4301A688F4B9A4205D095
:10536000D7F8F4301A688D4B9A4204D1FFF7FAFA55
:10537000C7F8FC0003E0FFF7E1FAC7F8FC00D7F834
:10538000F430DB69B3F5004F40F00C81D7F8FC3006
:105390000022C7F8E830C7F8EC20D7E93A452246A2
:1053A0002B469118B9655B41FB65D7E91623214669
:1053B00012EB0108294643EB01094FF000024FF0C0
:1053C00000034FEAC90343EA58734FEAC802904604
:1053D0009946234618EB0303C7F8E0302B4649EB08
:1053E0000303C7F8E430D7F8F4305B680022C7F84D
:1053F000D830C7F8DC20D7E936120B46DB183B65FE
:10540000134642EB03037B65D7E91423D7E9380140
:10541000FBF7DAFB02460B46614BA3FB02235B0959
:105420001C01D7F8FC300022C7F8D030C7F8D420D0
:10543000D7E9348942464B469118B9645B41FB6415
:10544000D7E91223414612EB010A494643EB010B0F
:105450004FF000024FF000034FEACB0343EA5A73C8
:105460004FEACA0292469B4643461AEB0303C7F82B
:10547000C8304B464BEB0303C7F8CC30D7F8F430B9
:105480005B680022C7F8C030C7F8C420D7E93012E3
:105490000B46DB183B64134642EB03037B64D7E9FE
:1054A0001023D7E93201FBF78FFB02460B4611466A
:1054B0003B4BA3FB01235B09642202FB03F3CB1AE2
:1054C000DB0003F13202364BA3FB02235B095B00D6
:1054D00003F4F8731C44D7F8FC300022C7F8B83046
:1054E000C7F8BC20D7E92E8942464B469118B963CC
:1054F0005B41FB63D7E90E234146511839634946A6
:105500004B417B634FF000024FF00003D7E90CAB37
:105510005946CB00514643EA51735146CA001046E2
:105520001946034642469B18C7F8B0304B460A4618
:1055300042EB0303C7F8B430D7F8F4305B680022BD
:10554000C7F8A830C7F8AC20D7E92A120B46DB18F9
:10555000BB62134642EB0303FB62D7E90A23D7E998
:105560002C01FBF731FB02460B460D4BA3FB02134C
:105570005B09642101FB03F3D31ADB003233084AD1
:10558000A2FB03235B0903F00702D7F8F4301B6882
:1055900022449A6005E100BF001001400014014060
:1055A0001F85EB51D7F8FC300022C7F8A030C7F8B0
:1055B000A420D7E9288942464B46911839625B41BD
:1055C0007B62D7E9082341465418494643EB01055D
:1055D0004FF000024FF00003EB0043EA5473E20087
:1055E00014461D464346E318C7F898304B4645EB32
:1055F0000303C7F89C30D7F8F4305B680022C7F883
:105600009030C7F894204FF000024FF00003D7E924
:10561000244529468B00214643EA917321468A009E
:10562000D7E92601FBF7D0FA02460B46604BA3FBF5
:1056300002235B091C01D7F8FC300022C7F8883030
:10564000C7F88C20D7E9228942464B469118B961A8
:105650005B41FB61D7E90623414651183961494650
:105660004B417B614FF000024FF00003D7E904ABE0
:105670005946CB00514643EA51735146CA00104681
:105680001946034642469B18C7F880304B460A46E7
:1056900042EB0303C7F88430D7F8F4305B6800228C
:1056A000BB67FA674FF000024FF00003D7E91E898D
:1056B00049468B00414643EA917341468A00D7E947
:1056C0002001FBF781FA02460B46394BA3FB02137C
:1056D0005B09642101FB03F3D31A1B013233344A03
:1056E000A2FB03235B0903F0F0031C44D7F8FC3052
:1056F00000223B677A67D7E91C8942464B469118DE
:10570000B9605B41FB60D7E902234146511839601B
:1057100049464B417B604FF000024FF00003D7E950
:1057200000AB5946CB00514643EA51735146CA007B
:1057300010461946034642469B18BB664B460A462E
:1057400042EB0303FB66D7F8F4305B6800223B664C
:105750007A664FF000024FF00003D7E918894946F6
:105760008B00414643EA917341468A00D7E91A010A
:10577000FBF72AFA02460B460D4BA3FB02135B090B
:10578000642101FB03F3D31A1B013233084AA2FB45
:1057900003235B0903F00F02D7F8F4301B6822449F
:1057A0009A6000BF07F58077BD46BDE8B08F00BFA7
:1057B0001F85EB5184B080B584B000AF786007F1ED
:1057C0001C0080E80E003B6B012B22D17B689B6B99
:1057D00023F480327B689A637B68DB6823F484035C
:1057E00023F040037A68D3607B68DB6823F44012BF
:1057F0007B68DA60FB6C012B05D17B68DB6843F4C6
:1058000080127B68DA60786801F0EEFB0346FB7378
:105810001AE07B68DB6843F040027B68DA607868F6
:1058200001F0E2FB0346FB733B6C002B06D17B6867
:105830009B6B43F480327B689A6305E07B689B6BCB
:1058400023F480327B689A63BB6A012B0BD17B689F
:105850009B6843F006027B689A607B689B6843F014
:1058600020027B689A60FB7B18461037BD46BDE876
:10587000804004B07047000080B487B000AFF8608B
:10588000B9601346FB71FB79022B65D1BB68414AB5
:10589000934206D9BB68404A934202D20F237B61F0
:1058A00062E0BB683C4A934206D3BB683B4A9342E2
:1058B00002D20E237B6157E0BB68384A934206D37D
:1058C000BB68374A934202D20D237B614CE0BB6830
:1058D000334A934206D3BB68324A934202D80C2320
:1058E0007B6141E0BB682F4A934206D9BB682E4AD0
:1058F000934202D80B237B6136E0BB682A4A93426D
:1059000006D9BB68294A934202D80A237B612BE05F
:10591000BB68264A934206D9BB68254A934202D205
:1059200009237B6120E0BB68214A934206D3BB6810
:10593000204A934202D808237B6115E0BB681D4AC8
:10594000934206D9BB681C4A934202D207237B616B
:105950000AE006237B6107E0FB79002B02D10923D3
:105960007B6101E009237B61FB68DB6823F47052F3
:10597000FB68DA60FB68DA687B699B0203F47053AA
:105980001A43FB68DA60002318461C37BD465DF8F1
:10599000047B7047BFACD800C0E1E4000024F400F1
:1059A000807306019F491A01FF2C31013FA44C016D
:1059B00000366E011FABA6010048E80180B483B039
:1059C00000AF78607B689B6843F001027B689A6057
:1059D000002318460C37BD465DF8047B704780B441
:1059E00083B000AF78607B689B6823F001027B681E
:1059F0009A60002318460C37BD465DF8047B70475B
:105A000080B584B000AF78600B46FB700023FB606C
:105A10007B68DB6823F0C0427B68DA60FB78012B8F
:105A200015D17B68DB6843F000527B68DA600120A7
:105A3000FBF754FEFB680133FB60786801F045FA20
:105A40000346012B1ED0FB68312BF0D91AE0FB78FE
:105A5000002B15D17B68DB6843F080427B68DA60FD
:105A60000120FBF73BFEFB680133FB60786801F027
:105A70002CFA0346002B05D0FB68312BF0D901E04E
:105A8000012305E0FB68322B01D1012300E0002354
:105A900018461037BD4680BD84B080B586B000AFD3
:105AA000786007F1240080E80E000023FB757B6816
:105AB000FB6000233B6109E07A683B6940339B004F
:105AC000134400225A603B6901333B613B690E2B52
:105AD000F2D9FB6C002B1CD1FB6803F500635B68FB
